:020000020000FC
:10F80000314080023C4000023D400200B012FCF852
:10F81000B01218F8B0120CF9B2401C5A2001D242B2
:10F82000FF105700D242FE105600F2D020005700C1
:10F83000F2D020005300F24010002100F2422600D6
:10F84000F240EF002200F24080002900F2C0800068
:10F850002E00F2432A00B2401C000001F2401C00BE
:10F86000B000B240080D0201B2C20001F240060031
:10F87000B700D2D32600D2B30200FD27D2C32600A0
:10F88000B2401E5A2001F2D030005700D2D30000FF
:10F8900032D0D80030410F120E12A2C200011F4216
:10F8A00012011E4200020E9F032C0F8E0E4F013CD0
:10F8B0000E8F3E9033000228D2D3210092421201D3
:10F8C0000002B1D0C00004003E413F410013D2B35A
:10F8D00021000820A2D20001A2D30201B1C0C000C1
:10F8E00000000013D2C32100001321830A4C814A77
:10F8F00000000D415C43B01214F9F93F0D5C033C6C
:10F90000CC4300001C530C9DFB233041304010F9C8
:06F910003040EAF830412E
:02FFEA0096F887
:02FFF400CEF845
:02FFFE0000F809
:040000030000F80001
:00000001FF
